{"abi":[{"type":"constructor","inputs":[{"name":"_entropy","type":"address","internalType":"address"}],"stateMutability":"nonpayable"},{"type":"function","name":"_entropyCallback","inputs":[{"name":"sequence","type":"uint64","internalType":"uint64"},{"name":"provider","type":"address","internalType":"address"},{"name":"randomNumber","type":"bytes32","internalType":"bytes32"}],"outputs":[],"stateMutability":"nonpayable"},{"type":"function","name":"request","inputs":[],"outputs":[],"stateMutability":"payable"},{"type":"event","name":"ColorGenerated","inputs":[{"name":"sequenceNumber","type":"uint64","indexed":false,"internalType":"uint64"},{"name":"r","type":"uint8","indexed":false,"internalType":"uint8"},{"name":"g","type":"uint8","indexed":false,"internalType":"uint8"},{"name":"b","type":"uint8","indexed":false,"internalType":"uint8"},{"name":"hexColor","type":"string","indexed":false,"internalType":"string"}],"anonymous":false},{"type":"event","name":"FlipRequested","inputs":[{"name":"sequenceNumber","type":"uint64","indexed":false,"internalType":"uint64"}],"anonymous":false}],"bytecode":{"object":"0x608060405234801561000f575f5ffd5b50604051610c67380380610c67833981810160405281019061003191906100d4565b805f5f6101000a81548173ffffffffffffffffffffffffffffffffffffffff021916908373ffffffffffffffffffffffffffffffffffffffff160217905550506100ff565b5f5ffd5b5f73ffffffffffffffffffffffffffffffffffffffff82169050919050565b5f6100a38261007a565b9050919050565b6100b381610099565b81146100bd575f5ffd5b50565b5f815190506100ce816100aa565b92915050565b5f602082840312156100e9576100e8610076565b5b5f6100f6848285016100c0565b91505092915050565b610b5b8061010c5f395ff3fe608060405260043610610028575f3560e01c8063338cdca11461002c57806352a5f1f814610036575b5f5ffd5b61003461005e565b005b348015610041575f5ffd5b5061005c6004803603810190610057919061063e565b610223565b005b5f5f5f9054906101000a900473ffffffffffffffffffffffffffffffffffffffff1673ffffffffffffffffffffffffffffffffffffffff16638204b67a6040518163ffffffff1660e01b8152600401602060405180830381865afa1580156100c8573d5f5f3e3d5ffd5b505050506040513d601f19601f820116820180604052508101906100ec91906106d3565b9050806fffffffffffffffffffffffffffffffff16341015610143576040517f08c379a000000000000000000000000000000000000000000000000000000000815260040161013a90610758565b60405180910390fd5b5f5f5f9054906101000a900473ffffffffffffffffffffffffffffffffffffffff1673ffffffffffffffffffffffffffffffffffffffff16637b43155d836fffffffffffffffffffffffffffffffff166040518263ffffffff1660e01b815260040160206040518083038185885af11580156101c1573d5f5f3e3d5ffd5b50505050506040513d601f19601f820116820180604052508101906101e6919061078a565b90507ffa799b9e877ad8ba8cfe8ce336553b81d71baa1d2a9a1b1cfbddf3e27a9f71f68160405161021791906107c4565b60405180910390a15050565b5f61022c61031b565b90505f73ffffffffffffffffffffffffffffffffffffffff168173ffffffffffffffffffffffffffffffffffffffff160361029c576040517f08c379a000000000000000000000000000000000000000000000000000000000815260040161029390610827565b60405180910390fd5b8073ffffffffffffffffffffffffffffffffffffffff163373ffffffffffffffffffffffffffffffffffffffff161461030a576040517f08c379a0000000000000000000000000000000000000000000000000000000008152600401610301906108b5565b60405180910390fd5b610315848484610342565b50505050565b5f5f5f9054906101000a900473ffffffffffffffffffffffffffffffffffffffff16905090565b5f815f1c90505f610100826103579190610909565b90505f610100600884901c61036c9190610909565b90505f610100601085901c6103819190610909565b90505f61038d8461040b565b6103968461040b565b61039f8461040b565b6040516020016103b1939291906109d5565b60405160208183030381529060405290507f0ca3c4857d9be987f2307113537288a3d7a7863c9f12715ba7bded0ee554b3c088858585856040516103f9959493929190610a73565b60405180910390a15050505050505050565b60605f6040518060400160405280601081526020017f303132333435363738394142434445460000000000000000000000000000000081525090505f600267ffffffffffffffff81111561046257610461610acb565b5b6040519080825280601f01601f1916602001820160405280156104945781602001600182028036833780820191505090505b5090508160048560ff16901c60ff16815181106104b4576104b3610af8565b5b602001015160f81c60f81b815f815181106104d2576104d1610af8565b5b60200101907effffffffffffffffffffffffffffffffffffffffffffffffffffffffffffff191690815f1a90535081600f851660ff168151811061051957610518610af8565b5b602001015160f81c60f81b8160018151811061053857610537610af8565b5b60200101907effffffffffffffffffffffffffffffffffffffffffffffffffffffffffffff191690815f1a9053508092505050919050565b5f5ffd5b5f67ffffffffffffffff82169050919050565b61059081610574565b811461059a575f5ffd5b50565b5f813590506105ab81610587565b92915050565b5f73ffffffffffffffffffffffffffffffffffffffff82169050919050565b5f6105da826105b1565b9050919050565b6105ea816105d0565b81146105f4575f5ffd5b50565b5f81359050610605816105e1565b92915050565b5f819050919050565b61061d8161060b565b8114610627575f5ffd5b50565b5f8135905061063881610614565b92915050565b5f5f5f6060848603121561065557610654610570565b5b5f6106628682870161059d565b9350506020610673868287016105f7565b92505060406106848682870161062a565b9150509250925092565b5f6fffffffffffffffffffffffffffffffff82169050919050565b6106b28161068e565b81146106bc575f5ffd5b50565b5f815190506106cd816106a9565b92915050565b5f602082840312156106e8576106e7610570565b5b5f6106f5848285016106bf565b91505092915050565b5f82825260208201905092915050565b7f6e6f7420656e6f756768206665657300000000000000000000000000000000005f82015250565b5f610742600f836106fe565b915061074d8261070e565b602082019050919050565b5f6020820190508181035f83015261076f81610736565b9050919050565b5f8151905061078481610587565b92915050565b5f6020828403121561079f5761079e610570565b5b5f6107ac84828501610776565b91505092915050565b6107be81610574565b82525050565b5f6020820190506107d75f8301846107b5565b92915050565b7f456e74726f70792061646472657373206e6f74207365740000000000000000005f82015250565b5f6108116017836106fe565b915061081c826107dd565b602082019050919050565b5f6020820190508181035f83015261083e81610805565b9050919050565b7f4f6e6c7920456e74726f70792063616e2063616c6c20746869732066756e63745f8201527f696f6e0000000000000000000000000000000000000000000000000000000000602082015250565b5f61089f6023836106fe565b91506108aa82610845565b604082019050919050565b5f6020820190508181035f8301526108cc81610893565b9050919050565b5f819050919050565b7f4e487b71000000000000000000000000000000000000000000000000000000005f52601260045260245ffd5b5f610913826108d3565b915061091e836108d3565b92508261092e5761092d6108dc565b5b828206905092915050565b5f81905092915050565b7f23000000000000000000000000000000000000000000000000000000000000005f82015250565b5f610977600183610939565b915061098282610943565b600182019050919050565b5f81519050919050565b8281835e5f83830152505050565b5f6109af8261098d565b6109b98185610939565b93506109c9818560208601610997565b80840191505092915050565b5f6109df8261096b565b91506109eb82866109a5565b91506109f782856109a5565b9150610a0382846109a5565b9150819050949350505050565b5f60ff82169050919050565b610a2581610a10565b82525050565b5f601f19601f8301169050919050565b5f610a458261098d565b610a4f81856106fe565b9350610a5f818560208601610997565b610a6881610a2b565b840191505092915050565b5f60a082019050610a865f8301886107b5565b610a936020830187610a1c565b610aa06040830186610a1c565b610aad6060830185610a1c565b8181036080830152610abf8184610a3b565b90509695505050505050565b7f4e487b71000000000000000000000000000000000000000000000000000000005f52604160045260245ffd5b7f4e487b71000000000000000000000000000000000000000000000000000000005f52603260045260245ffdfea264697066735822122005af16232942e85fb62af4ba7fea135b81eba9a47cf89a6c9d290b3ae316c03a64736f6c634300081e0033","linkReferences":{}},"methodIdentifiers":{"_entropyCallback(uint64,address,bytes32)":"52a5f1f8","request()":"338cdca1"},"id":6}